:0C0000000C9416010C9400000C940000FD
:10000C000C9400000C9400000C9400000C94000064
:10001C000C9400000C9400000C9400000C94000054
:10002C000C9400000C9400000C9400000C94000044
:10003C000C948E010C948D010C9400000C94000017
:10004C000C9400000C9400000C9400000C94000024
:10005C000C9400000C9400000C9400000C94000014
:10006C000C9400000C9400000C9400000C94000004
:10007C000C9400000C9400000C9400000C940000F4
:10008C001027E80364000A000100001000011000B2
:10009C000100A2075768696368206D6F64653F2093
:1000AC006E6F726D616C206F722074696D696E6712
:1000BC003F20002573006E6F726D616C0074757259
:1000CC006E6F6E206F72207475726E6F66663F2055
:1000DC00007475726E6F6E00204F6E200074757216
:1000EC006E6F666600206F6666200077726F6E67B3
:1000FC000074696D696E670053657420636C6F637F
:10010C006B20746F20486F7572732C204D696E755F
:10011C007465732C205365636F6E64733A200025ED
:10012C006420256420256400536574206F6E207450
:10013C00696D6520746F20486F7572732C204D6942
:10014C006E757465732C205365636F6E64733A20FF
:10015C0000536574206F66662074696D6520746F3A
:10016C0020486F7572732C204D696E757465732CF5
:10017C00205365636F6E64733A20005475726E4F32
:10018C006E3D20253032643A253032643A253032C7
:10019C0064005475726E4F66663D20253032643AA9
:1001AC00253032643A253032640020437572726512
:1001BC006E7454696D653D20253032643A253032B9
:1001CC00643A25303264000080C0020006009E00B4
:1001DC001F000005A00007001F05C2001400260523
:1001EC00C90007003A05DD0005004105E4000800E0
:1001FC004605E90006004E05F10006005405F7001F
:10020C0007005A05FD002700610504012900880537
:10021C0034012A00B1055D0102007D06D401000005
:10022C00F894EE27ECBBF1E0F5BFE5BFE0936C0072
:10023C008DE0A2E0BB27ED938A95E9F780E090E191
:10024C00A0E0B1E0ED930197E9F7E6EDF1E08591DF
:10025C009591009761F0A591B59105901590BF010E
:10026C00F00105900D920197E1F7FB01F0CFEFEF54
:10027C00EDBFE0E1EEBFC0E0D5E00C942F02BA93E5
:10028C00AA93E885F985AA81BB81EA17FB075CF480
:10029C00EA85FB853197EA87FB87E885F985FC962B
:1002AC00E887F987EECFAA81BB81E885F985EA1B3F
:1002BC00FB0BA881B981ED93FC93EA85FB85AC819E
:1002CC00BD81EA17FB075CF4EC85FD853197EC8763
:1002DC00FD87EA85FB85FC96EA87FB87EECFAC8130
:1002EC00BD81EA85FB85EA1BFB0BA881B9811296BF
:1002FC00ED93FC93AE81BF81EC85FD85EA1BFB0B76
:10030C00A881B9811496ED93FC932E9608951895B7
:10031C000A92AA93BA93EA93FA93EFB7EA93E0E0BE
:10032C00E2BFF20131962F01E2EAF7E0E415F505A0
:10033C0009F050C044245524F40131964F01EBE3ED
:10034C00F0E0E815F905B4F488249924F501319608
:10035C005F01EBE3F0E0EA15FB0564F4AA24BB248F
:10036C00F60131966F01E7E1F0E0EC15FD0514F4B0
:10037C00CC24DD240E94DE07EC15FD0569F40E94F7
:10038C00E307EA15FB0541F40E94E807E815F905B7
:10039C0019F40E94ED0709F402C0A89AA99A0E94C8
:1003AC00F307EC15FD0569F40E94F807EA15FB0547
:1003BC0041F40E94FD07E815F90519F40E94ED07B8
:1003CC0009F408C0A898A998E1E0F0E0E093690668
:1003DC00F0936A060E94ED07A1F1F30131973F01FA
:1003EC003196062C072869F5E2EAF7E03F01A7E70A
:1003FC00B6E00E940208A0917806AA2312F5EBE35E
:10040C00F0E0E0937706F0937806A9E7B6E00E9457
:10041C000208A0917A06AA23A2F4EBE3F0E0E093A1
:10042C007906F0937A06ABE7B6E00E940208A09139
:10043C007C06AA2332F4E7E1F0E0E0937B06F0932C
:10044C007C06E991EFBFF991E991B991A9910990D5
:10045C001895E0E0EABBEBBBE7BBE8BBEFEFE4BB16
:10046C00E0E0E5BBE1BBE2BBE2B9E3B9E0936100DC
:10047C00E0936200E0936400E0936500E0BFE5E088
:10048C00E3BFE0E0E2BFE0E1E1BFE0E0EFBDEEBDE5
:10049C00EDBDECBDE7BDE6BDEBBDEABDE9BDE8BD1C
:1004AC00E0937900E0937800E5BDE4BDE3BDE09313
:1004BC008B00E0938A00E0938900E0938800E0933E
:1004CC008100E0938000E0938700E0938600E09346
:1004DC008500E0938400E0938300E0938200E3E0E6
:1004EC00E7BFE0E0E0937D00E0936A00EABFE9BF7C
:1004FC00EBB9E8E1EAB9E6E0E0939500E0E0E093DF
:10050C009000E3E3E9B9E0E0E0939A00E0E8E8B9B1
:10051C00E0E0E0BDE6B9EDB9E0937400A8E20E941A
:10052C0044047894E0E0E0936706E0936806E09377
:10053C006906E0936A0663D1A0E0B5E00E94080862
:10054C00E1E2F6E00E940F08E1E2F6E0FA93EA93AA
:10055C00AFE1B5E00E948E07E03069F550D1A6E21C
:10056C00B5E00E940808EDE0F6E00E940F08EDE00F
:10057C00F6E0FA93EA93AAE3B5E00E948E07E03026
:10058C0031F4A1E4B5E069D1A89AA99A13C0EDE0C1
:10059C00F6E0FA93EA93A6E4B5E00E948E07E03009
:1005AC0031F4AEE4B5E059D1A898A99803C0A4E5FC
:1005BC00B5E053D1E0C0E1E2F6E0FA93EA93AAE5A4
:1005CC00B5E00E948E07E03009F0D5C018D1A1E645
:1005DC00B5E00E941808E1E4F6E00E941F08E3E48D
:1005EC00F6E00E941F08E5E4F6E00E941F080E9456
:1005FC002408A8E8B5E00E941808E5E3F6E00E949C
:10060C001F08E7E3F6E00E941F08E9E3F6E00E940A
:10061C001F080E942408A1EBB5E00E941808EBE328
:10062C00F6E00E941F08EDE3F6E00E941F08EFE3DE
:10063C00F6E00E941F080E942408C0904106D0904A
:10064C004206A0904306B0904406809045069090D8
:10065C0046060E94DE07E0936F06F09370060E9438
:10066C00E307E0936D06F0936E060E94E807E093B3
:10067C006B06F0936C060E94F307E0937506F093FB
:10068C0076060E94F807E0937306F09374060E94B6
:10069C00FD07E0937106F0937206EBE6F6E0A6E038
:1006AC000E94C008E1E7F6E0A6E00E94C008A7E7B8
:1006BC00B6E0E5DDE1E0F0E0E0936706F093680674
:1006CC00E0916906F0916A06309709F054C097D012
:1006DC00E7E4F6E0FA93EA93E7E8F1E0FA93EA93B9
:1006EC000E94DE070E942A080E94E3070E942A0843
:1006FC000E94E8070E942A080E942F08A0E06ED0F2
:10070C00A7E4B6E0AAD0E7E5F6E0FA93EA93EEE9BF
:10071C00F1E0FA93EA930E94F3070E942A080E94E0
:10072C00F8070E942A080E94FD070E942A080E94CE
:10073C002F08A1E053D0A7E5B6E08FD0EBEDF5E0A4
:10074C00FA93EA93E6EBF1E0FA93EA93F6010E944E
:10075C002A08F5010E942A08F4010E942A088CE05C
:10076C000E94EB056096ABEDB5E077D0A4EFB1E05D
:10077C000E949408A5CFD6CEFFCFAA93E881E07152
:10078C0011F0939A01C09398E881E07211F0949A59
:10079C0001C09498E881E07411F0959A01C0959885
:1007AC00E881E07811F0969A01C096988DE08A95D0
:1007BC00F1F7929A8DE08A95F1F792988DE08A95EF
:1007CC00F1F78AC0AA93A881D8DFE881E295E88383
:1007DC00A881D3DF85E88A95F1F77EC0AA93E881DA
:1007EC00F0E0E358F94FE081A981AE0FEBDFE9812E
:1007FC00E0938106E881E093820622960895A2E0B8
:10080C000E943608ACE0DEDFA1E00E943608E0E092
:10081C00E0938206E09381060895AA93A881AA30FA
:10082C0031F0E0918306A0918106AE1760F0E0E014
:10083C00EA93A0918206AF5FA0938206CFDFA881D6
:10084C00AA3009F449C0E0918106EF5FE09381067C
:10085C00909AA881B7DF90983FC0BA93AA931A9345
:10086C00A981BA81ED91A983BA831E2FE03019F0CA
:10087C00A12FD3DFF5CF188123960895AA938B9AD5
:10088C008C9A8D9A8E9A8A9A889A899A929890982C
:10089C009198E881E0938306E058E0937F06E88125
:1008AC00E054E0938006A4E1B0E00E9494080E941A
:1008BC003C080E943C080E943C08A0E25EDF88ECE9
:1008CC0090E00197F1F7A8E27DDFA4E07BDFA5E8DB
:1008DC0079DFA6E077DF93DF219608955F9BFECF4B
:1008EC00ECB10895BA93AA931A930A93AA81BB8187
:1008FC0012960E94B308309759F1AA81BB811496C5
:10090C000E94B3088F01309761F00230E0E01E07BF
:10091C0098F0F80131978F01AA81BB811496ED9361
:10092C00FC93AA81BB811296ED91FD913196FE93B9
:10093C00EE933197AC81A083AA81BB810E94B3084E
:10094C00FF232AF0ED91FD913196FE93EE9306C0B4
:10095C00AA81BB81EFEFFFEFED93FC931981088126
:10096C0076C1BA93AA9326970E94C80810E0AC856A
:10097C00BD85E0E0F0E0ED93FC93EA89FB893196CC
:10098C00EA8BFB8B3197E4912E2FE03009F415C1E3
:10099C00E12FE03039F4253211F411E002C00E944D
:1009AC0044080AC1E130A9F4253219F40E94440824
:1009BC0002C112E040E000E02D3211F401E0FCC075
:1009CC002B3211F44BE2F8C0203211F440E2F4C0A7
:1009DC0002C0E23039F450E013E0203311F4006827
:1009EC00EBC003C0E33009F0E7C0203310F02A332A
:1009FC0008F007C0AAE05A9F502DE22FE0535E0F7B
:100A0C00DBC0E22FE33649F40E944B08E889F989F0
:100A1C00A481AA930E945108CEC0E33741F40E94EE
:100A2C004B080E9457080E94A2071E2F0AC0E037ED
:100A3C0061F40E944B080E9457080E94AE071E2FBB
:100A4C00086002600F7730E034C0E43611F0E9360C
:100A5C0011F4046002C0E53731F4ECE8F0E0EE8309
:100A6C00FF8315E00CC0E83511F4086003C0E837CB
:100A7C0009F0A1C0E6E9F0E0EE83FF8314E002FF89
:100A8C0014C00E944B080E946108AB85AA233AF45B
:100A9C00EA85FB850E94A208EA87FB874DE240307D
:100AAC0011F01F5F01C00B7F04C00E944B080E9415
:100ABC00610800FD11C0151778F407FF08C002FF8C
:100ACC0004C00B7F242F115001C020E301C020E291
:100ADC000E9444085150EFCF312F01FF17C0303026
:100AEC00A1F003FF06C0EE81FF812591EE83FF8309
:100AFC0005C0AE81BF812D91AE83BF830E94440897
:100B0C00503009F051503150EACF4BC020E3EE8108
:100B1C00FF810E94B708E887F987EE81FF81329642
:100B2C00EE83FF83E885F985AA85BB85AE17BF07E1
:100B3C0050F02F5FA885B985EA85FB85EA1BFB0B76
:100B4C00EA87FB87EFCF2A3328F003FF02C0295F27
:100B5C0001C0295D04FD1AC0213320F4A885B98594
:100B6C00119709F409C0531710F000FF01C013C00E
:100B7C0020E207FF0BC020E3006102FF07C00B7FE0
:100B8C004A930E945108503009F051500E94440879
:100B9C00503009F051503150A885B985129708F0A2
:100BAC00B5CF00FF08C0503031F05150E0E2EA936D
:100BBC000E945108F8CF10E0E0CEAC85BD850E94B4
:100BCC00B3080E94CF0864960895FF92F82E2697DA
:100BDC000E94CA080E946908309719F4EFEFFFEFE2
:100BEC001DC0DE0116960E949E088D010E946908A8
:100BFC00EE83FF83E0E0E887E987DE011A960E9426
:100C0C007008E8E7F4E0FA93EA93DE011A96A9DE9D
:100C1C009F01AE81BF81E0E0EC93F9010E94D10805
:100C2C002A96FF900895BA93AA931A93A981BA8130
:100C3C00E0E0EC93AB81BC81EC911E2FE03019F01D
:100C4C00E0E0EC9302C04ADE1E2FE12F18812596BE
:100C5C000895FF92BA93AA9324970E94C808E0E0E3
:100C6C00F0E0E887F9874E2FE889F9893196E88B0F
:100C7C00F98B3197E4913E2FE03009F425C10E94A5
:100C8C007908C1F0EDB7FEB7FA93EA934F930E943F
:100C9C007E084F913E2FE03019F00E94790809F43C
:100CAC0007C00E9484081CF4EFEFFFEF0FC1EACFDE
:100CBC00432F09C1353209F0EEC050E0E889F989BB
:100CCC003591E88BF98B303310F03A3308F007C0CC
:100CDC00AAE05A9F502DE32FE0535E0FEFCF303038
:100CEC0009F4F2C0EDB7FEB7FA93EA934F930E9462
:100CFC007E084F912E2FAE2F0E94C407E03039F0A2
:100D0C000E9484081CF4EFEFFFEFE0C0EBCF203023
:100D1C0009F4D1C0422F503009F45FEFE32FE336D2
:100D2C0099F40E948908EDB7FEB7FA93EA934F93B2
:100D3C000E947E084F91D801EC930E9484081CF409
:100D4C00EFEFFFEFC3C0A1C0E33741F50E94890864
:100D5C00E52F5150E030F1F0EDB7FEB7FA93EA937E
:100D6C004F930E947E084F913E2FE03019F00E9465
:100D7C00790839F00E9484081CF4EFEFFFEFA6C04D
:100D8C0009C01F930F930F5F1F4FE32FAF91BF91BC
:100D9C00EC93DECFD801E0E0EC9377C06894F1F8E7
:100DAC00E894F2F8E32FE43611F0E93619F4E894FC
:100DBC00F1F802C0E53711F42AE008C0E83711F465
:100DCC0020E104C0E53209F466C07EC0E0E0EE83A9
:100DDC00EF836894F0F8E52F5150E03009F446C0E9
:100DEC00EDB7FEB7FA93EA934F930E947E084F91AA
:100DFC003E2FE13238F40E9484081CF4EFEFFFEF31
:100E0C0065C017C0F1FC08C06894F1F83D3211F4CC
:100E1C00F2F8E1CF3B32F9F2203131F4A32F0E94EA
:100E2C00CF07E03031F009C0A32F0E94BB07E030A0
:100E3C0021F4F0FC49C0432F19C0313610F037555E
:100E4C0005C0313410F0375301C03053E22FAE815E
:100E5C00BF81F0E00E94AB08DF01E32FF0E0EA0F66
:100E6C00FB1FEE83FF83E894F0F8B5CF0E9489084E
:100E7C00F2FE06C0EE81FF810E94A208EE83FF8382
:100E8C00EE81FF81D801ED93FC93E885F9853196CD
:100E9C00E887F98718C0EDB7FEB7FA93EA934F933A
:100EAC000E947E084F91E31771F00E9484081CF495
:100EBC00EFEFFFEF0BC0E885F985309719F4EFEFF2
:100ECC00FFEF04C001C0D0CEE885F9850E94CF08A1
:100EDC006296FF900895FF92F82E23971A930A9327
:100EEC00DE0111960E949E088D01E0E0EB83EC83FD
:100EFC00DE0115960E947008E9E1F6E0FA93EA9398
:100F0C00DE011896A6DE198108812596FF900895BA
:100F1C00BA93AA93E991F991A991B9916D917191B3
:100F2C00671721F46623D1F7EE270895671BE1F3C9
:100F3C00E1E008F4E2500895BA93AA93A991B9910B
:100F4C00EE27FF276D91662311F03196FBCF0895A4
:100F5C00BA93AA93AA27BB27E991F991059000208F
:100F6C0011F01196FBCFFD010895AA93E1E0F991E0
:100F7C00F03310F0FA3308F0EE270895AA93E1E06D
:100F8C00F991F03229F0F93010F0FE3008F0EE272C
:100F9C000895AA93E1E0F991F05340F0FA3038F05B
:100FAC00FF75F750FA3010F0F03108F0EE27089585
:100FBC00E0913506F09136060895E0913706F091F0
:100FCC0038060895E0913906F0913A060895E091BB
:100FDC006706F091680630970895E0913B06F09112
:100FEC003C060895E0913D06F0913E060895E0918F
:100FFC003F06F09140060895ED91FD913197FE93D7
:10100C00EE9308950E943304EFEBF0E0FA93EA9329
:10101C000895662777270E94BB0884E00E94710719
:10102C00269608950E943304EBE2F1E0FA93EA93DA
:10103C000895662777270E94BB0808958CE00E94CC
:10104C0071072E960C9405040E94A6080E94BB08FA
:10105C0008958CE00E94EB056096E0E0EA93089519
:10106C000E94E803A3E0B0E00C949408A0E30E9473
:10107C00C30388EC90E00197F1F708952A93AD85AE
:10108C00BE85EF85F88909950895E889F989349723
:10109C00E88BF98B0895AD85BE85EF85F8890995A8
:1010AC000895A889B98914960E94B308EE83FF832A
:1010BC00AE81BF810895A889B98914960E94B3089E
:1010CC00EA87FB870895DE011C960E949E080E9409
:1010DC00B30808950E949E080E94B308FA93EA93FD
:1010EC001A930A930895A32F0E94C407E030089521
:1010FC00AC85BD85EE85FF8509950895AA85BB85D0
:10110C00AC91A0300895EE85FF853497EE87FF876C
:10111C00AE85BF8514960D911C910895109639F0EB
:10112C0080ED97E00197F1F7A8951197C9F708950D
:10113C000024AF0DB01D0895F195E195F040089590
:10114C006F2F660F660B762F0895FA9FF02DEB9F8D
:10115C00F00DEA9FE02DF10D0895ED91FC911197A2
:10116C0008950590F491E02D08957A936A93FA937B
:10117C00EA930895BB27EA0FFB1F02900A9211977E
:10118C00E1F708955A934A933A932A931A930A9340
:10119C0008955D814C813B812A81198108810895D4
:00000001FF
